:020000040000fa
:080000000002040000000000f2
:020000040000fa
:040008009a03000057
:020000040000fa
:04000c00ca03000023
:020000040000fa
:040010007e0300006b
:020000040000fa
:04001400c003000025
:020000040000fa
:04001800b60300002b
:020000040000fa
:04001c007e0300005f
:020000040000fa
:040020007e0300005b
:020000040000fa
:040024007e03000057
:020000040000fa
:040028007e03000053
:020000040000fa
:04002c007e0300004f
:020000040000fa
:040030007e0300004b
:020000040000fa
:04003400fa020000cc
:020000040000fa
:040038005e03000063
:020000040000fa
:04003c007e0300003f
:020000040000fa
:040040007e0300003b
:020000040000fa
:0400440014030000a1
:020000040000fa
:040048007e03000033
:020000040000fa
:04004c007e0300002f
:020000040000fa
:040050007e0300002b
:020000040000fa
:040054007e03000027
:020000040000fa
:040058007e03000023
:020000040000fa
:04005c007e0300001f
:020000040000fa
:040060006603000033
:020000040000fa
:040064007e03000017
:020000040000fa
:040068007e03000013
:020000040000fa
:04006c003c04000050
:020000040000fa
:040070007e0300000b
:020000040000fa
:04007400d4030000b1
:020000040000fa
:040078007e03000003
:020000040000fa
:04007c007e030000ff
:020000040000fa
:040080007e030000fb
:020000040000fa
:040084007e030000f7
:020000040000fa
:040088006e03000003
:020000040000fa
:04008c007e030000ef
:020000040000fa
:040090007e030000eb
:020000040000fa
:040094007e030000e7
:020000040000fa
:040098004c04000014
:020000040000fa
:04009c007e030000df
:020000040000fa
:0400a0007e030000db
:020000040000fa
:0400a4007e030000d7
:020000040000fa
:0400a8007e030000d3
:020000040000fa
:0400ac007e030000cf
:020000040000fa
:0400b0007e030000cb
:020000040000fa
:0400b400260300001f
:020000040000fa
:0400b80076030000cb
:020000040000fa
:0400bc007e030000bf
:020000040000fa
:0400c0007e030000bb
:020000040000fa
:0400c4007e030000b7
:020000040000fa
:0400c8007e030000b3
:020000040000fa
:0400cc007e030000af
:020000040000fa
:0400d0007e030000ab
:020000040000fa
:0400d4007e030000a7
:020000040000fa
:0400d8007e030000a3
:020000040000fa
:0400dc007e0300009f
:020000040000fa
:0400e0007e0300009b
:020000040000fa
:0400e4007e03000097
:020000040000fa
:0400e8007e03000093
:020000040000fa
:0400ec007e0300008f
:020000040000fa
:0400f0007e0300008b
:020000040000fa
:0400f4007e03000087
:020000040000fa
:0400f8007e03000083
:020000040000fa
:0400fc007e0300007f
:020000040000fa
:040100007e0300007a
:020000040000fa
:040104007e03000076
:020000040000fa
:040108007e03000072
:020000040000fa
:04010c007e0300006e
:020000040000fa
:040110007e0300006a
:020000040000fa
:040114007e03000066
:020000040000fa
:040118007e03000062
:020000040000fa
:04011c007e0300005e
:020000040000fa
:040120007e0300005a
:020000040000fa
:040124007e03000056
:020000040000fa
:040128007e03000052
:020000040000fa
:04012c007e0300004e
:020000040000fa
:040130007e0300004a
:020000040000fa
:040134007e03000046
:020000040000fa
:040138007e03000042
:020000040000fa
:04013c007e0300003e
:020000040000fa
:040140007e0300003a
:020000040000fa
:040144007e03000036
:020000040000fa
:040148007e03000032
:020000040000fa
:04014c007e0300002e
:020000040000fa
:040150007e0300002a
:020000040000fa
:040154007e03000026
:020000040000fa
:040158007e03000022
:020000040000fa
:04015c007e0300001e
:020000040000fa
:040160007e0300001a
:020000040000fa
:040164007e03000016
:020000040000fa
:040168007e03000012
:020000040000fa
:04016c007e0300000e
:020000040000fa
:040170007e0300000a
:020000040000fa
:040174007e03000006
:020000040000fa
:040178007e03000002
:020000040000fa
:04017c007e030000fe
:020000040000fa
:040180007e030000fa
:020000040000fa
:040184007e030000f6
:020000040000fa
:040188007e030000f2
:020000040000fa
:04018c007e030000ee
:020000040000fa
:040190007e030000ea
:020000040000fa
:040194007e030000e6
:020000040000fa
:040198007e030000e2
:020000040000fa
:04019c007e030000de
:020000040000fa
:0401a0007e030000da
:020000040000fa
:0401a4007e030000d6
:020000040000fa
:0401a8007e030000d2
:020000040000fa
:0401ac007e030000ce
:020000040000fa
:0401b0007e030000ca
:020000040000fa
:0401b4007e030000c6
:020000040000fa
:0401b8007e030000c2
:020000040000fa
:0401bc007e030000be
:020000040000fa
:0401c0007e030000ba
:020000040000fa
:0401c4007e030000b6
:020000040000fa
:0401c8007e030000b2
:020000040000fa
:0401cc007e030000ae
:020000040000fa
:0401d0007e030000aa
:020000040000fa
:0401d4007e030000a6
:020000040000fa
:0401d8007e030000a2
:020000040000fa
:0401dc007e0300009e
:020000040000fa
:0401e0007e0300009a
:020000040000fa
:0401e4007e03000096
:020000040000fa
:0401e8007e03000092
:020000040000fa
:0401ec007e0300008e
:020000040000fa
:0401f0007e0300008a
:020000040000fa
:0401f4007e03000086
:020000040000fa
:0401f8007e03000082
:020000040000fa
:0401fc007e0300007e
:020000040000fa
:040200007e03000079
:020000040000fa
:040204007e03000075
:020000040000fa
:040208007e03000071
:020000040000fa
:04020c007e0300006d
:020000040000fa
:040210007e03000069
:020000040000fa
:040214007e03000065
:020000040000fa
:040218007e03000061
:020000040000fa
:04021c007e0300005d
:020000040000fa
:040220007e03000059
:020000040000fa
:040224007e03000055
:020000040000fa
:040228007e03000051
:020000040000fa
:04022c007e0300004d
:020000040000fa
:040230007e03000049
:020000040000fa
:040234007e03000045
:020000040000fa
:040238007e03000041
:020000040000fa
:04023c007e0300003d
:020000040000fa
:040240007e03000039
:020000040000fa
:040244007e03000035
:020000040000fa
:040248007e03000031
:020000040000fa
:04024c007e0300002d
:020000040000fa
:040250007e03000029
:020000040000fa
:040254007e03000025
:020000040000fa
:040258007e03000021
:020000040000fa
:04025c007e0300001d
:020000040000fa
:040260007e03000019
:020000040000fa
:040264007e03000015
:020000040000fa
:040268007e03000011
:020000040000fa
:04026c007e0300000d
:020000040000fa
:040270007e03000009
:020000040000fa
:040274007e03000005
:020000040000fa
:040278007e03000001
:020000040000fa
:04027c007e030000fd
:020000040000fa
:040280007e030000f9
:020000040000fa
:040284007e030000f5
:020000040000fa
:040288007e030000f1
:020000040000fa
:04028c007e030000ed
:020000040000fa
:040290007e030000e9
:020000040000fa
:040294007e030000e5
:020000040000fa
:040298007e030000e1
:020000040000fa
:04029c007e030000dd
:020000040000fa
:0402a0007e030000d9
:020000040000fa
:0402a4007e030000d5
:020000040000fa
:0402a8007e030000d1
:020000040000fa
:0402ac007e030000cd
:020000040000fa
:0402b0007e030000c9
:020000040000fa
:0402b4007e030000c5
:020000040000fa
:0402b8007e030000c1
:020000040000fa
:0402bc007e030000bd
:020000040000fa
:0402c0007e030000b9
:020000040000fa
:0402c4007e030000b5
:020000040000fa
:0402c8007e030000b1
:020000040000fa
:0402cc007e030000ad
:020000040000fa
:0402d0007e030000a9
:020000040000fa
:0402d4007e030000a5
:020000040000fa
:0402d8007e030000a1
:020000040000fa
:0402dc007e0300009d
:020000040000fa
:0402e0007e03000099
:020000040000fa
:0402e4007e03000095
:020000040000fa
:0402e8007e03000091
:020000040000fa
:0402ec007e0300008d
:020000040000fa
:0402f0007e03000089
:020000040000fa
:0402f4007e03000085
:020000040000fa
:0402f8007e03000081
:020000040000fa
:0402fc007e0300007d
:020000040000fa
:040300007e03000078
:020000040000fa
:040304007e03000074
:020000040000fa
:040308007e03000070
:020000040000fa
:04030c007e0300006c
:020000040000fa
:040310007e03000068
:020000040000fa
:100400000f4021000eff24000e01880000000000b4
:10041000000020000000e000020032000001200087
:100420002002880014000700230107000000e000fc
:1004300003003a00e018210001002000020037000c
:100440000000200001002000810f70000100320038
:100450000f000700000020000000e0000200320052
:100460000000020000000000400502000000000043
:100470000040da000000fe00000b20000000e00059
:1004800002003200002020009001880000000600d9
:10049000a1028800800478000000eb001f003700f4
:1004a000e284440054a0b4009905ba00e2844400f8
:1004b00054a0b4009906ba00e284440054a0b400e9
:1004c0000006eb00476fde00fd07b200ae018800ba
:1004d000636ce10003003a000ad801000000eb0061
:1004e0000e003700606ce10008003a00004deb00a0
:1004f0000a05e800020039003420ec000af0a000f0
:100500008b05e900f9ff3e00040037006168e10057
:10051000010032000086eb000b00070019c7ba008b
:100520000e04e0001905ba0003003a000a00e000da
:10053000dbff3a0000000600fe07b200ae028800b2
:100540008a047800f5ff37000cd0a300e20f4d00bd
:100550001c00390089027800354dba000a05e80010
:10056000020039003420ec000af0a0008b05e900fd
:100570000f003200254dba000a05e80002003900dc
:100580003420ec000af0a0008b05e90008003200de
:100590000c00e0000600320015cdba000a05e800a4
:1005a000020039003420ec000af0a0008b05e900bd
:1005b0008984e80054a0b4000b00e000e2ff3a0098
:1005c000000006009902ba00055d78008b05e9007d
:1005d000f7ff3200c82ade00055d78008b05e900d0
:1005e000f3ff32000c00e000f1ff320019ddba0029
:1005f000eeff3700801f78000000fa005080800076
:100600000000e8005080880010828000fa00b900e5
:10061000308288004230ef000068a9000080fa00b4
:100620004f00780000400600801f78000000fa00ac
:10063000408080000000e8004080880000e8a900b9
:100640000080fa004f00780000400600809fbe0046
:100650000000fa000468a9005020800061006000da
:100660000000e000010032000a04a90050208000d0
:10067000620060000000e0000d00320000218000f8
:10068000620060000000e00008003200e009210084
:1006900051c0b30001487800100a210011c0b30016
:1006a0000148780010c0b30016f0b7000a24a90072
:1006b0000080fa004f00be00004006000000fa0073
:1006c0000088a9000080fa00004006000000fa003f
:1006d00001c8a9000080fa00004006000000fa00ee
:1006e0000308a9000080fa00004006000000fa009c
:1006f0000488a9000080fa00004006003200f800db
:100700003400f800881f780018002000a801880035
:100710000820200098018800000000004f047800a5
:100720000000fa00558ea80055aea80055cea800ce
:10073000ffff37003200f8003400f800881f78000f
:1007400018002000a80188000820200098018800d7
:10075000000000004f0478000000fa00558ea80049
:1007600055aea80055cea800ffff37000000fa00e4
:10077000558ea80055aea80055cea800ffff370043
:100780000000fa00558ea80055aea80055cea8006e
:10079000ffff37000000fa00558ea80055aea800f4
:1007a00055cea800ffff3700809fbe000000fa0072
:1007b0005071800067006000e0818800f081800057
:1007c00080004000800e21000080400090007800f2
:1007d000e0818000808f500004003a001082800089
:1007e0000000e80010828800010037004230ef006e
:1007f000e0818000f081880050828000e10f50008d
:1008000013003a00e081800080004000800b21004e
:10081000008040001000780010618800e0818000b6
:1008200080004000800c2100008040001000780013
:1008300010628800e081800080004000800d21006f
:100840000080400010007800106388000600370028
:10085000c08580001061880040868000106288009a
:10086000c0868000106388000268a9000080fa003a
:100870004f00be0000400600801f78000000fa0014
:1008800010c0b30050f0b7000228a9000080fa00a1
:100890004f00780000400600801f78000000fa003a
:1008a00010c0b30052f0b7000388a9000080fa001e
:1008b0004f00780000400600000005006022b800ec
:1008c000060220000000d0008180d2000482d20005
:1008d0008582d2000000a0000202520083825a00ea
:1008e000030031000202420083824a000000a1009e
:1008f0000603e900f3ff3a0000000600efff0700df
:100900000400be00000006008000780001017800ad
:100910003104e000fdff3a00000051000000060035
:020000040000fa
:1009200072650000636500006976000065000000e4
:1009300054720000616e0000736d00006974000065
:100940002044000061740000610000002a2a0000b9
:100950002a540000524100004e5300004d4900004f
:1009600054540000494e0000472000004f4e000044
:100970002d4200004f41000052440000205300006f
:10098000454e0000534f0000522000005641000029
:100990004c550000455300002a2a00002a000000a0
:1009a0004c6f0000636100006c200000506f00007d
:1009b00074200000566f00006c7400006167000036
:1009c000653a000020520000656100006469000083
:1009d0006e670000203d0000200000004c6f00000a
:1009e000636100006c200000546500006d70000021
:1009f000657200006174000075720000653a0000c5
:100a00002052000065610000646900006e6700000c
:100a1000203d0000200000002a2a00002a200000bb
:100a2000524500004d4f0000544500002043000097
:100a3000414e0000204d000045530000534100008e
:100a40004745000020490000442000003d200000f0
:100a500030780000002000005245000043450000af
:100a60004956000045440000202a00002a2a0000c0
:100a70000044000061740000613a000020000000a2
:020000040000fa
:100a80001200fa000000eb00000f78000000eb00fd
:100a9000100798000000eb00200798006000b800e5
:100aa00030079800410798006000b8005007980090
:100ab000610798000000eb00700798000000eb0051
:100ac000000f9800294ea9002d4ea900250007000f
:100ad000110007005f00070030000700cb0307008c
:100ae000700007009b030700550307000a30ef0062
:100af000558ea800401f200050608800d0858000df
:100b0000106188005086800010628800d0868000c6
:100b100010638800f7ff37000000fa000028ef009c
:100b20000228ef000428ef000628ef000828ef0055
:100b300001438000f0f82f00808060000006200054
:100b4000010070000043880021428000f0ff28006f
:100b50000080600000e0a000204288000080fa00d1
:100b6000000006000000fa00213a8000f0f32f0098
:100b700000806000203a8800213a800000fe2f00ab
:100b800000806000203a880060022000303a88002f
:100b900040a7a9000080fa00000006000000fa004b
:100ba000518ea90051aea90051cea900294ea9002d
:100bb0002d4ea9000a30ef000830ef0005e1a90032
:100bc0000421a90004c1a90021088000000320001d
:100bd0000100700020088800608929001008880042
:100be00001428000f0ff28008080600000002300a8
:100bf00001007000004288000068a9002068a80079
:100c000011e1a9001021a90010c1a90081088000ec
:100c10000003200001007000800888000621ef001a
:100c2000a06120006008880011428000f0ff2800c9
:100c30000080600000d0a0001042880000e8a900f9
:100c400020e8a80011e1a80005e1a8000080fa0052
:100c5000000006000000fa005e2eef00502eef00ac
:100c6000542eef0030002000107188003001200069
:100c7000a0708800182eef00362eef0070002000c4
:100c8000407188002c2eef0030002000707088002a
:100c90003000200000708800042eef000080fa0071
:100ca000000006000000fa002c30ef002e30ef00ac
:100cb0003030ef003230ef003430ef003630ef00ec
:100cc0003830ef003a30ef0021e3a90021a3a9005a
:100cd0002183a9002143a80001198000f0cf2f0033
:100ce000008060000019880001198000f0f12f00d9
:100cf00000806000001988002083a9002043a8001c
:100d00002223ef0025e3a90021198000f00f2e0017
:100d10000080600000b0a0002019880080c0b300ef
:100d200024e3b7003223ef0011198000f0cf2f0029
:100d3000008060001019880028e3a90029e3a900b9
:100d40004119800000fc2f000080600040198800dd
:100d500041198000f00f2c000080600040198800cd
:100d60002e23ef003003a80021e3a800800220001a
:100d7000de0007000080fa00000006000000fa0014
:100d800028e3a90029e3a9004119800000fc2f00f5
:100d9000008060004019880041198000f00f2c008d
:100da00000806000401988002023a9000000000096
:100db00000198000610060000000e000fcff3200cc
:100dc000001880000080fa00000006000000fa0011
:100dd00028e3a90029e3a9004119800000fc2f00a5
:100de000008060000000a0004019880041198000c8
:100df000f00f2c00008060000080a00040198800e7
:100e00002023a9000000000000198000610060009c
:100e10000000e000fcff3200001880000080fa00b3
:100e2000000006000000fa00292ea9002d2ea900be
:100e3000642ea900640ea80000062000a0368800d9
:100e4000e00020001034880001208000f08f2f0087
:100e50000080600000a0a0000020880000000000ca
:100e600001208000000e200080806000000820002b
:100e7000808f5000faff3a00700420008020880024
:100e8000202d200090208800f0012c0030208800c8
:100e900031208000f0ff21000080600030208800b9
:100ea0000004a800c1208000c0ff2f000080600067
:100eb000c02088003024ef00004422000022880077
:100ec000802180000030a000802188000122800065
:100ed00070ff2f0000806000002288000121800048
:100ee00000ff2f0000806000002188001404a8008b
:100ef0000004a90001208000f08f2f000080600016
:100f0000002088000000000001208000000e20006a
:100f1000008060000000e000fbff3a002a24ef00a0
:100f2000502180004021880040218000102188004d
:100f3000102180000021880030e4a800802180007a
:100f40003000b30080218800f02bef00f22bef007f
:100f50000002220000588800600420001058880019
:100f600070002000705888002044200060588800dd
:100f700000202100205888000020210030588800df
:100f800001eba8000c24a8000c04a8002468a80009
:100f90000080fa00000006000000fa0080482000ef
:100fa000009088000000eb00109088008000200076
:100fb00020908800d0bc2a00309088004023210077
:100fc000409088008067250050908800d0bc2a009f
:100fd000609088000080fa00000006000000fa001f
:100fe00080482000009088000000eb0010908800ee
:100ff0000000000000000000000000003064a800b5
:101000000000000000000000000000000080fa0066
:10101000000006000000fa0016d0bf00e14f5000ab
:1010200004003a00004928009404070074010700f6
:101030001670ef000080fa00000006000000fa00c1
:101040004eff0700108088004006200027000700a0
:101050008049280089040700604a280087040700a7
:10106000004d28000004070010808000cf80de00c3
:101070008a04070055ff07002080880040062000f2
:101080001a000700e04e2800f703070020808000c8
:10109000cf80de008104070000f421001300070068
:1010a000ceff0700803821001000070090002000cc
:1010b00001002000790407000080fa00000006000b
:1010c0000200fa00004f78000830ef000000000036
:1010d0009e80fb0040808000808f5000fcff3c0021
:1010e0000830ef000080fa00000006000400fa005b
:1010f000100798000000eb00000f78000300370095
:1011000027000900000000001e0fe8001e009000ec
:101110009e007800808f5000f9ff35000080fa00b3
:10112000000006000a00fa00400798000000eb00eb
:10113000100798000000eb00000f78006000b80076
:1011400020079800310798004e0090003040900032
:101150000080fb00c400dd00002021000080400072
:101160001000780061006000100798001e009000d9
:101170000000e0001a003a004e009000304090005d
:101180000080fb00c400dd00002021000080400042
:1011900090007800c0ff2100008060004200de0067
:1011a0008000eb004e019000200198003101980072
:1011b0004e00900041c0b300214098004e009000c6
:1011c000304090000080fb00c400dd0000202100c2
:1011d0000080400010007800620f60006b00370054
:1011e0004e009000304090000080fb00c400dd0005
:1011f0000020210000804000100078006101b8004c
:10120000c0ff2100010020000202780003017800e5
:101210008001780001007800030262000000610094
:101220008000eb00c000dd00000020000001be00d7
:101230006120b800000171008181710022079800cf
:10124000330798002e009000be009000c000dd0023
:10125000000020004e01900020019800310198000c
:101260004e009000304090000080fb004400dd0004
:101270008080e800002021000080400010007800fd
:101280006101b800f0ff2000010020000202780098
:1012900003017800800178000100780003026200f9
:1012a000000061008000eb00c000dd0000002000b5
:1012b0000001be006120b800000171008181710051
:1012c00022079800330798004e00900020019000fc
:1012d000b00190002e029000be0290004628dd0072
:1012e000ca20de00810070004620dd0002004000c0
:1012f000838048004e019000200198003101980041
:101300004e009000304090000080fb004400dd0063
:10131000e400400000202100008040001000780020
:101320004a00de008000eb0020079800310798009b
:101330004e00900020019000b00190002e0090001f
:10134000be00900002004000838048004e019000e3
:1013500020019800310198004e00900031c0b30088
:10136000214098004e009000304090000080fb002b
:101370004400dd00e4004000002021000080400027
:101380009000780000202000008f60001e00780090
:10139000e10f500004003a004e00900021c0b3005d
:1013a00011409800730037004e00900011c0b30048
:1013b000114098004e009000304090000080fb00eb
:1013c0004400dd00e60040000020210000804000d5
:1013d00010007800004078008080fb004e009000f4
:1013e000410098004e009000304090000080fb00cb
:1013f0004400dd00e60040000020210000804000a5
:10140000100078004800de00004078008080fb007b
:101410004e009000510098004e0090003040900027
:101420000080fb004400dd00e800400000202100b7
:101430000080400010007800004078008080fb00b1
:101440004e009000610098004e00900030409000e7
:101450000080fb004400dd00e80040000020210087
:1014600000804000100078004800de000040780056
:101470008080fb004e009000710098004e009000ac
:10148000304090000080fb004400dd00ea00400096
:10149000002021000080400010007800004078000b
:1014a0008080fb004e009000010898004e009000e4
:1014b000304090000080fb004400dd00ea00400066
:1014c0000020210000804000100078004800de006d
:1014d000004078008080fb004e00900011089800ca
:1014e0004e009000304090000080fb004400dd0082
:1014f000ec00400000202100008040001000780037
:10150000004078008080fb004e0090002108980089
:101510004e009000304090000080fb004400dd0051
:10152000ec00400000202100008040001000780006
:101530004800de00004078008080fb004e009000f4
:10154000310898004e009000304090000080fb0071
:101550004400dd00e4004000002021000080400045
:101560001000780000407800ef4060004e009000ce
:10157000015898004e009000304090000200070093
:101580000080fa00000006000200fa00004f780018
:1015900000218000620060000000e00005003200d1
:1015a0001e407800e14f500002003a002024a900bc
:1015b0001100370000218000640060000000e0009e
:1015c000050032001e407800e24f500002003a0051
:1015d0002044a90008003700002180006800600056
:1015e0000000e000040032001e407800e34f50008d
:1015f00001003a002064a9000080fa000000060003
:101600000000fa00c05028009702070012858000f1
:101610002385800000f02f000100200002027800e6
:101620000301780080017800010078000302620065
:10163000000061008000eb00c000dd000000200021
:101640000001be006120b8000001710081817100bd
:10165000481add004810de0000007200c818de00e5
:10166000004078000000fb000081880001818000bc
:10167000000f200000806000f0808800f080800073
:101680004400de000003b000f0808800008180008c
:101690006f0060000003b000e0808800f0808000f0
:1016a00000407800e7020700e080800000407800fa
:1016b000e40207001085800021858000004078004a
:1016c0000000fb000081880001818000000f2000e5
:1016d00000806000f0808800f08080004400de0020
:1016e0000003b000f0808800008180006f0060007f
:1016f0000003b000e0808800f080800000407800a7
:10170000d0020700e080800000407800ec02070073
:10171000b0522800d902070090532800d7020700d2
:10172000808580004400de00004078006f4060004b
:101730000043b000c30207008085800000407800ad
:101740006f4060000043b000dd020700708580003c
:101750004400de00004078006f4060000043b000ad
:10176000b802070070858000004078006f4060007c
:101770000043b000d2020700608580004400de0014
:10178000004078006f4060000043b000ad020700e9
:1017900060858000004078006f4060000043b0002a
:1017a000c7020700508580004400de00004078003a
:1017b0006f4060000043b000a20207005085800027
:1017c000004078006f4060000043b000bc0207009a
:1017d000408580004400de00004078006f406000db
:1017e0000043b00097020700408580000040780069
:1017f0006f4060000043b000b102070030858000f8
:101800004400de00004078006f4060000043b000fc
:101810008c02070030858000004078006f40600037
:101820000043b000a6020700558ea800a0c0b30078
:1018300023fe0700558ea9000080fa000000060074
:101840000000fa00002cef0010002000106088005b
:10185000409c20002060880010002000306088003c
:101860001a2cef000a2cef00001020000061880005
:101870000010200000628800001020000063880033
:101880002161800000c027000100700020618800f5
:101890002162800000c027000100700020628800e3
:1018a0002163800000c027000100700020638800d1
:1018b000252ca800452ca800652ca800250ca80004
:1018c000450ca800650ca800206180003000b30022
:1018d00020618800206280003000b3002062880010
:1018e000206380003000b3002063880050718000c6
:1018f00067006000e0818800e0818000f08188005e
:10190000e081800080004000800b210000804000ca
:101910001000780010618800e081800080004000a5
:10192000800c2100008040001000780010628800c8
:10193000e081800080004000800d21000080400098
:10194000100078001063880001eca8000080fa0005
:10195000000006000000fa00300ea800302ea8009b
:10196000304ea8000268a90041428000f0ff280024
:101970000080600000e0a000404288002268a800cb
:101980000080fa00000006000400fa000000eb00ee
:10199000000f78000000eb00100798000000000026
:1019a000f6fc0700f1682000810f5000fcff3c00ae
:1019b0000630ef000e003700f0fc0700000f780043
:1019c000eefc0700100798001e0090009e0f5000cc
:1019d000020031009e009000010f780010c0b3009b
:1019e000b7fd0700308080000000e80030808800ec
:1019f0003180800030062000808f5000eeff3400e0
:101a00001e0078000080fa00000006000000fa00c6
:101a100060e7a90001e2a90001a2a9000142a90012
:101a20000122a8000102a90000a2a9000222ef00e1
:101a30000422ef00300c200050108800414280004a
:101a4000f0f82f00008060000060a0004042880095
:101a50000228a9002228a80001e2a80021e1a9008b
:101a60002021a90020c1a900010980000003200055
:101a700001007000000988001821ef0050e82100e3
:101a8000e00888007142800080ff2f000080600025
:101a90003000b300704288000388a9002388a800a2
:101aa0000080fa00000006000000fa000000eb00d1
:101ab000808a88000000eb00908a88000000eb001c
:101ac000a08a88000000eb00b08a88000080fa003d
:101ad000000006000000fa000000eb00408a8800c9
:101ae0000000eb00508a88000000eb00608a88004c
:101af0000000eb00708a88000080fa0000000600f9
:101b00000800fa0010079800210798003207980093
:101b10001e0090000000e000280032002e0090001f
:101b20000000e000250032000040eb00004f78008c
:101b30001f0037009e009000818a8800ae00900050
:101b4000918a88000000eb00a08a8800be00900007
:101b5000b18a880010002000708288005070ef0069
:101b60005170ef004c30ef000002a8003401070074
:101b7000010037004600070052d0bf000004e0001b
:101b800003003a0060828000eb0f5000f9ff3a003a
:101b90003101070052d0bf00e14f50000300320076
:101ba00070828000e20f500004003a001e4fe800ef
:101bb0001e4078000004e000deff32000080fa00e2
:101bc000000006000800fa0010079800210798009e
:101bd000320798001e0090000000e000290032004b
:101be0002e0090000000e000260032000040eb00d4
:101bf000004f7800200037009e009000418a880046
:101c0000ae009000518a88000000eb00608a8800d6
:101c1000be009000718a88004e30ef005070ef00d7
:101c20005170ef004c30ef00050107000100370054
:101c30001700070052d0bf000004e00003003a0084
:101c400060828000eb0f5000f9ff3a0002010700ac
:101c500052d0bf00e14f500003003200708280007c
:101c6000e20f500002003a001e4fe8000200370069
:101c700010c0b300040037001e4078000004e000ec
:101c8000ddff32000040eb000080fa00000006009b
:101c90000000fa00608280008000eb00e20020007b
:101ca00003002000820f5000838f5800e2003e00a6
:101cb000000601000e00370016003700190037003b
:101cc00036003700540037005e00370072003700de
:101cd000770037007d00370083003700930037001e
:101ce000d5003700970037009a003700b100370061
:101cf000708280000000e0000300320070828000eb
:101d0000e10f5000b9003a00100020006082880006
:101d1000c90037000002a80020002000608288006f
:101d2000c500370050d0bf00e14f5000b1003a006d
:101d30005070ef0070828000e10f500009003a00ff
:101d4000818a8000a08a80008080400091407800d5
:101d50008180fb00611088000000e800a08a8800f4
:101d60000b003700708280000000e00008003a009d
:101d7000418a8000608a8000808040009140780025
:101d80008180fb00611088000000e800608a880004
:101d90003000200060828800a700370050d0bf00cc
:101da000e14f500095003a005070ef002110800084
:101db00000002800008060000000e0000900320000
:101dc00051d0bf00e44f500003003e0080002000cf
:101dd0006082880098003700a000200060828800a0
:101de000950037005170ef0070828000e10f5000c5
:101df00003003a0040002000608288008e00370017
:101e0000708280000000e0007e003a00c0002000e8
:101e10006082880088003700818a8000a08a800064
:101e200080804000914078008180fb006110880034
:101e30000000e800a08a880050002000608288002e
:101e40007d00370050d0bf00e14f50006f003a00d6
:101e50005070ef0040002000608288002110800058
:101e600000002800008060000000e0000300320055
:101e7000a0002000608288006f003700a18a8000e7
:101e8000908a8000808f500062003a00600020003d
:101e900060828800680037000042a80070002000bf
:101ea0006082880030002000708288006200370065
:101eb00050d0bf00e14f500058003a005070ef0082
:101ec000b0002000608288005b0037000042a8005c
:101ed000900020006082880051d0bf000040e800e0
:101ee00051f0b7005400370050d0bf00e14f500010
:101ef0004c003a005070ef004c30ef0070828000d0
:101f0000e10f500003003a000000eb00a08a8800b7
:101f100049003700708280000000e00043003a0072
:101f20000000eb00608a8800430037000042a800f0
:101f300070002000608288002000200070828800ed
:101f40003d0037000062a800d000200060828800b9
:101f50003900370050d0bf00e14f500035003a0043
:101f60005070ef00e000200060828800418a80000d
:101f7000608a8000008040007110800081407800fd
:101f800001487800608a80000000e800608a8800cc
:101f9000618a8000508a8000808f500002003a00e1
:101fa00000a2a8000100370000a2a9000082a8003a
:101fb0002100370050d0bf00e14f50001e003a0012
:101fc0005070ef00618a8000508a8000808f50003e
:101fd00003003a006000200060828800160037008d
:101fe000c00020006082880013003700000000005d
:101ff00011003700000000000f0037000000000053
:102000000d003700000000000b003700000000004a
:102010000900370000000000070037000000000042
:10202000050037000000000003003700000000003a
:1020300001003700000000000080fa0000000600e8
:102040000000fa005270ef001821ef0021e1a80013
:102050000080fa00000006000000fa0021e1a9005b
:102060000080fa00000006000600fa002007980031
:102070002e00900024fa070010079800801021001d
:1020800041c4b300014878000000eb00000f780065
:10209000090037001e007800ae009000008040006c
:1020a0001040780080407800801021001e00400021
:1020b000114098001e0fe8001e0090009e0078005e
:1020c000808f5000f3ff35001e0090000000e800f4
:1020d0000001eb00800078008010210088fe0700de
:1020e0000080fa00000006001e00fa00500f980061
:1020f000610f98000040eb00404798000000eb00a3
:10210000000f78000000eb00100798005e089000b8
:10211000ee089000e00f5000e08f58001d003a00dc
:102120001e0090006600400001c3b30001777800f4
:102130001e0090000000e80010079800150037000e
:102140005e089000ee089000a2002000030020002e
:10215000eaf90700004078000043b00080407800b2
:102160001e00900066004000017778001e0090007d
:102170000000e800100798005e089000ee0890004c
:10218000a200200003002000ccf90700500f9800a7
:10219000610f98005e089000ee089000e00f50007c
:1021a000e08f5800e6ff3a001e00900066004000f5
:1021b0008040eb00017778000000eb00000f780012
:1021c000130037009e007800668040006e41780062
:1021d000524798001e0090001e0050000000e900c9
:1021e00066004000ee4078001e0178006600410065
:1021f000017778001e0090001e0050000000e900ea
:1022000066004000de409000017778001e0fe80075
:102210001e0090000080d1009e0f5000e9ff3c009e
:102220004e409000e14f500002003a00d0c2b3008f
:1022300004000700660047008bff07000080fa00db
:10224000000006000200fa00004f78008010210014
:1022500041c4b300014878009e40780090102100ee
:10226000014878000001eb002100200080102100cf
:1022700023fe07000080fa00000006000200fa00ba
:10228000000f78001e00780077ff0700a0c0b300a1
:10229000ecff07000080fa00000006000400fa00ce
:1022a000008fbe001e0078009e0090008eff070089
:1022b000a0c0b300e3ff07000080fa0000000600a2
:1022c0000200fa00004f78001e407800ddff070092
:1022d000a0c0b300dbff07000080fa00000006008a
:1022e0000000fa008012210051c4b30001487800b8
:1022f000000000000001eb002100200080122100fe
:1023000030fe07000004e000faff320090122100c6
:0c231000104078000080fa000000060079
:020000040000fa
:10231c00b8100000500000008200000003c303004e
:10232c00c283c30003c30300c303c20083c30300ff
:10233c00c303c30003c30300c203c20083c38300ef
:10234c00c303c30003c30300c383c30003c38300dd
:10235c00c303c20003c30300c203c3000000050093
:10236c000003000001000600000400000200000051
:10237c000000000003000600000200000500010040
:10238c000004000000000000561000006200000075
:10239c00800000000012000000020000800000001d
:1023ac00001000004c0000008000000054100000e1
:1023bc000200000082000000320000004811000002
:1023cc0010000000800000004c100000080000000d
:1023dc008000000008110000400000008000000098
:0423ec0000000000ed
:020000040000fa
:020000040005f5
:04573000fbff00007b
:020000040000fa
:020000040005f5
:04573800bdff0000b1
:020000040000fa
:020000040005f5
:045740009fff0000c7
:020000040000fa
:020000040005f5
:04574800feff000060
:020000040000fa
:020000040005f5
:04575000feff000058
:020000040000fa
:020000040005f5
:04577800feff000030
:020000040000fa
:020000040005f5
:04578000feff000028
:00000001FF
